:100000000C94C5000C94F6000C94F6000C94F600C9
:100010000C94F6000C94F6000C94F6000C94F60088
:100020000C94F6000C94F6000C94F6000C94F60078
:100030000C94F6000C94F6000C94F6000C94F60068
:100040000C94F6000C94F6000C94F6000C94F60058
:100050000C94F6000C94F6000C94F6000C945E18C8
:100060000C94F6000C9432190C9408190C94F600B8
:100070000C94F6000C94F6000C94F6000C94F60028
:100080000C94F6000C94F6000C94F6000C94F60018
:100090000C94D2180C94A8180C94F6000C94F6004A
:1000A0000C94F6000C94F6000C94F6000C94F600F8
:1000B0000C94F6000C94F6000C94F6000C94F600E8
:1000C0000C94F6000C94F6000C94F6000C94F600D8
:1000D0000C94F6000C94F6000C94F6000C94F600C8
:1000E0000C94F6000C94B1020C94120F0C94681945
:1000F0000C9405110C9488110C943C070C94640228
:100100000C9459070C948A0A0C94010E0C942E112D
:100110000C94A4010C947E0A0C94C7010C947812E0
:100120000C94920F0C94E0110C946B0E0C947701CC
:100130000C943B120C94FC0D0C94D5010C941702FA
:100140000C9456070C94500F0C94B3010C94E410CB
:100150000C94060E0C940C0F0C94D40D0C946F0799
:100160000C9472070C94310E0414004008140440DF
:100170000000000004120040081404400C14084061
:1001800010140C4000000000681911241FBECFEFAE
:10019000D1E2DEBFCDBF00E00CBF14E0A0E0B2E0D2
:1001A000E2EAFFE300E00BBF02C007900D92A03827
:1001B000B107D9F726E0A0E8B4E001C01D92AB3545
:1001C000B207E1F710E0C5ECD0E000E006C02197EF
:1001D0000109802FFE010E943A1DC43CD10780E036
:1001E0000807A9F70E94BB190C94CF1F0C940000BC
:1001F000EEEBF5E0A089B18982E08C93A485B5850A
:100200001C92A685B78580E18C93108EA489B58950
:1002100086E08C93A289B3898C9180618C93A289AA
:10022000B3898C9188608C93A289B3898C91806802
:100230008C930288F389E02D80818F7D80830895DF
:100240003FB7F89480911D0590911E05A0911F0560
:10025000B091200526B5A89B05C02F3F19F0019647
:10026000A11DB11D3FBFBA2FA92F982F8827BC0110
:10027000CD01620F711D811D911D42E0660F771F38
:10028000881F991F4A95D1F708958F929F92AF9238
:10029000BF92CF92DF92EF92FF924B015C010E94DE
:1002A00020016B017C010E9420016C197D098E09DF
:1002B0009F09683E734081059105A8F321E0821AE9
:1002C0009108A108B10888EEC80E83E0D81EE11C91
:1002D000F11C81149104A104B10429F7FF90EF905F
:1002E000DF90CF90BF90AF909F908F900895AF9286
:1002F000BF92CF92DF92EF92FF920F931F93CF9313
:10030000DF936C017B018B01040F151FEB015E0174
:10031000AE18BF08C017D10759F06991D601ED9109
:10032000FC910190F081E02DC6011995892B79F798
:10033000C501DF91CF911F910F91FF90EF90DF905A
:10034000CF90BF90AF900895FC01538D448D252F21
:1003500030E0842F90E0821B930B541710F0CF965F
:10036000089501970895FC01918D828D981761F091
:10037000A28DAE0FBF2FB11D5D968C91928D9F5FA8
:100380009F73928F90E008958FEF9FEF0895FC0187
:10039000918D828D981731F0828DE80FF11D858D3A
:1003A00090E008958FEF9FEF0895FC01918D228DCD
:1003B000892F90E0805C9F4F821B91098F73992752
:1003C000089581E295E00E94D50121E0892B09F48E
:1003D00020E0822F08958EEB95E00E94D50121E068
:1003E000892B09F420E0822F0895FC01A48DA80F29
:1003F000B92FB11DA35ABF4F2C91848D90E0019667
:100400008F739927848FA689B7892C93A089B18986
:100410008C91837080648C93938D848D981306C027
:100420000288F389E02D80818F7D80830895EF928B
:10043000FF920F931F93CF93DF93EC0181E0888F9E
:100440009B8D8C8D98131AC0E889F989808185FF6E
:1004500015C09FB7F894EE89FF896083E889F98910
:1004600080818370806480839FBF81E090E0DF9112
:10047000CF911F910F91FF90EF900895F62E0B8D65
:1004800010E00F5F1F4F0F731127E02E8C8D8E1120
:100490000CC00FB607FCFACFE889F989808185FF87
:1004A000F5CFCE010E94F501F1CFEB8DEC0FFD2FC2
:1004B000F11DE35AFF4FF0829FB7F8940B8FEA8942
:1004C000FB8980818062CFCFCF93DF93EC01888D51
:1004D0008823B9F0AA89BB89E889F9898C9185FDBF
:1004E00003C0808186FD0DC00FB607FCF7CF8C914D
:1004F00085FFF2CF808185FFEDCFCE010E94F5010F
:10050000E9CFDF91CF91089580E090E0892B29F029
:100510000E94EB0181110E94000080E090E0892B95
:1005200029F00E94E10181110E94000080E090E02A
:10053000892B49F080E090E0892B29F00E9400008F
:1005400081110E94000080E090E0892B49F080E05A
:1005500090E0892B29F00E94000081110C9400008A
:1005600008959B01BA01FA0146855785443051052B
:1005700071F4A589B689109751F0009751F0ED916B
:10058000FC911197AD014E5F5F4F309771F481E0A0
:10059000089521153105D9F3ED91FC91119730970C
:1005A000B1F3AD014E5F5F4FC9011994CF92DF9255
:1005B000EF92FF92CF93DF93DC0114968D919C9183
:1005C0001597019615969C938E931497CD91DC9177
:1005D00011972885398582179307B8F015961C92D4
:1005E0001E92149717961C921E9216971B961C9299
:1005F0001E921A9719961C921E921897DF91CF910E
:10060000FF90EF90DF90CF90089516962D913C913A
:100610001797C901880F991F880F991FE881F981E1
:10062000E80FF91FC590D590E590F49077276F2DCE
:100630005E2D4D2D83E0C822DD2481E090E002C0D4
:10064000880F991FCA94E2F7820F931F17969C9305
:100650008E931697842F807321E030E011F030E004
:1006600020E018968D919C911997820F931F1996EF
:100670009C938E9318974F704850550B21E030E0B3
:100680004230510510F030E020E01A968D919C9197
:100690001B97820F931F1B969C938E931A97AECF36
:1006A0004F925F926F927F928F929F92AF92BF9282
:1006B000CF92DF92EF92FF920F931F93CF93DF932E
:1006C00000D000D0CDB7DEB7DC014D915C91119721
:1006D0005E834D8314962D913C911597FA01808588
:1006E00091852817390708F075C120813181169648
:1006F0008D919C911797880F991F880F991FF90169
:10070000E80FF91FC590D590E590F49077276F2DED
:100710005E2D4D2D49835A836B837C8352964C9377
:100720005297B701A6014370552766277727260100
:100730003701F2E07694679457944794FA95D1F78D
:10074000413051056105710509F45FC008F440C0EE
:10075000FC0134968C01085F1F4F42305105610542
:10076000710509F4CDC0E20FF31F459155916591D4
:100770007491F901E00FF11F85909590A590B490C8
:10078000FC013C96E20FF31FC590D590E590F490E4
:10079000FC017096E20FF31F05911591259134919C
:1007A00051961C930E935097F201EF73FF27052F7C
:1007B000162F272F3327C80156E0880F991F5A9507
:1007C000E1F78E2B9F2B1D969C938E931C9718C040
:1007D00081E090E051969C938E9350975FE3452281
:1007E00055241D965C924E921C974F2D4F708E2C67
:1007F000912C6CE1F694E794D794C7946A95D1F75D
:100800001F96DC92CE921E9738C0FC013496E20F00
:10081000F31F0591159125913491C7019F70519651
:100820009C938E9350976FE34622552448015901BB
:100830008CE1B694A794979487948A95D1F7C401D4
:1008400046E0880F991F4A95E1F7842995291D965E
:100850009C938E931C975CE1F694E794D794C7948D
:100860005A95D1F74C2D48015901AA24BB24C9013E
:100870009F701F969C938E931E9712968D919C91BC
:100880001397009709F06DC054961C921E925397CF
:1008900058961C921E92579752968C9152978F7031
:1008A0008850990B029708F090C01A968D919C91F0
:1008B0001B97880F991FED81FE8122813381F901F9
:1008C000E80FF91F808191815A969C938E935997D6
:1008D00081E026960FB6F894DEBF0FBECDBFDF9144
:1008E000CF911F910F91FF90EF90DF90CF90BF902D
:1008F000AF909F908F907F906F905F904F900895F2
:10090000E20FF31F4591559165917491F901E00F44
:10091000F11F85909590A590B490FC013C96E20F54
:10092000F31F05911591259134915196FC92EE9209
:1009300050978FE348225524C52ED62EE72EFF244C
:10094000C601F6E0880F991FFA95E1F784299529E9
:100950001D969C938E931C971F961C930E931E9727
:100960008CCF880E991E54969C928E925397442356
:10097000C1F0C401841B910947FD939558969C933F
:100980008E9357978981807C8038D1F481149104AB
:10099000B9F0F4018081918156969C938E9355977E
:1009A0007BCF89818073803231F4998196FD03C0B9
:1009B000CD014096E3CF58961C921E925797E2CFF6
:1009C00056969C928E92559767CF5A961C921E927D
:1009D00059977ECF80E07DCF0F931F93CF93DF9306
:1009E000EC018A014115510569F1E881F9813097DF
:1009F00049F12E813F81CA01820F931F821793070D
:100A000028F02C813D812817390770F48885998555
:100A1000009711F48CE392E09987888780E0DF915A
:100A2000CF911F910F910895CE01199581110AC0A0
:100A3000288539852115310511F428E432E03987FC
:100A40002887EDCF8E819F81080F191F1F830E838A
:100A500081E0E5CFFB01268537852430310531F46F
:100A60006589768944E050E00C94EC042830310527
:100A700029F46589768948E050E0F6CFFC012085AD
:100A800031852115310511F421E532E0FC01318772
:100A9000208780E008952F923F924F925F926F924D
:100AA0007F928F929F92AF92BF92CF92DF92EF92FE
:100AB000FF920F931F93CF93DF9300D000D000D00D
:100AC0001F92CDB7DEB73C01480159016A017B0195
:100AD0009801A501B601C701AFE7FE0131961F01DC
:100AE0000E94811D09F000F5098341E050E0B10149
:100AF000C3010E94EC042A960FB6F894DEBF0FBE25
:100B0000CDBFDF91CF911F910F91FF90EF90DF90BC
:100B1000CF90BF90AF909F908F907F906F905F909D
:100B20004F903F902F90089500E20E945D1D522E3D
:100B3000052D132F9A01482CE89447F8D501C401DC
:100B4000F7E0B695A79597958795FA95D1F7B101F6
:100B500050E040E00097A105B10561F401151105D1
:100B60002105310539F4D101A40FB51F4C924F5F17
:100B70005F4FBDCF4F5F5F4F689447F8FB014192D5
:100B8000BF01482EE89447F8E7E0B695A7959795FA
:100B90008795EA95D1F744305105E1F60115110525
:100BA0002105310501F3852D82958077482A93E050
:100BB00036952795179507959A95D1F7DE011596E5
:100BC000AD0142195309011511052105310559F2ED
:100BD000842D80688D93402EE89447F887E0369501
:100BE0002795179507958A95D1F7EACF5F926F926F
:100BF0007F928F929F92AF92BF92CF92DF92EF92AD
:100C0000FF920F931F93CF93DF937C01FB01228907
:100C10002F70868597852230E1F58130910599F412
:100C20000588F689E02D8081682E712C912C812C0D
:100C3000A12CB12C650183019401A501B601C70166
:100C40000E944B05AFC08230910539F40588F689C2
:100C5000E02D808191813C01E9CF8430910551F4F0
:100C60000588F689E02D80819181A281B3813C01C4
:100C70004D01DECF089709F08AC025893689F90130
:100C80006080718082809380A480B580C680D78088
:100C9000D2CF81309105C9F50588F689E02DC08154
:100CA0001C2F110F110BF12FB12EC12ED12ED12FD0
:100CB000E12F233009F086C02C2F312F4F2F5B2DD1
:100CC000B6018D2F9E2F01E00E94421D022F532E50
:100CD0003A014B01A82EB92F2C2F312F4F2F5B2D0E
:100CE000B6018D2F9E2FA0E00E94811D44F4009537
:100CF00050946094709480949094A094B095152D25
:100D00009301A4016A2D7B2F9ACF8230910571F453
:100D10000588F689E02D1181C081F12FFF0FFF0BAF
:100D2000BF2ECF2EDF2EDF2FEF2FC3CF84309105C4
:100D3000A1F40588F689E02D80819181A281B3819B
:100D4000C82F192FFA2FBB2EBB0F880B982FDC0151
:100D5000C82ED82ED82FE82FACCF0897C1F4A5897C
:100D6000B689CC9111961C9111971296FC9112970D
:100D70001396BC9013971496CC9014971596DC900C
:100D800015971696DC9116971796EC9192CFF7016E
:100D900080859185009711F481E592E0F7019187B4
:100DA000808780E0DF91CF911F910F91FF90EF90AE
:100DB000DF90CF90BF90AF909F908F907F906F907B
:100DC0005F9008950C2F2F2F3B2DA6016D2F7E2FA6
:100DD00036CFCF92DF92EF92FF920F931F93CF9374
:100DE000DF93EC016B017A018A0120E030E040E002
:100DF00050E060E070E00E944B05882369F0A70195
:100E0000B601CE01DF91CF911F910F91FF90EF902E
:100E1000DF90CF900C94EC0480E0DF91CF911F9194
:100E20000F91FF90EF90DF90CF9008958F929F9257
:100E3000AF92BF92CF92DF92EF92FF920F931F93E8
:100E4000CF93DF93EC01DB015296EC91EF70EC3025
:100E500080F5F0E08827E05DF84F8F4F0C943A1D45
:100E60006F076F076F076F073C0772075607560734
:100E70005607560759075607A5E0B0E0FB018484E2
:100E80009584940140E050E060E070E080E090E004
:100E900003E00E94421D89019A014D010A2B192984
:100EA000AB01BC01CE010E944B050CC0A2E0B0E03A
:100EB000E5CF88859985009711F483E692E09987BC
:100EC000888780E0DF91CF911F910F91FF90EF9085
:100ED000DF90CF90BF90AF909F908F900895B0E03B
:100EE000A0E0CCCFA1E0B0E0C9CFCF93DF93EC017D
:100EF0008C819D81892B61F48E819F81009711F4F3
:100F000086E792E09F838E8380E0DF91CF91089502
:100F1000E881F98141E050E0CE01199581110AC0C4
:100F20002E813F812115310511F428E432E03F8301
:100F30002E83EBCF2C813D81215031093D832C83C1
:100F4000E4CF4F925F926F927F928F929F92AF9277
:100F5000BF92CF92DF92EF92FF920F931F93CF93A6
:100F6000DF931F92CDB7DEB74C017B01412C512C92
:100F7000612C712CA12CB12CC12CD12C10E0BE0104
:100F80006F5F7F4FC4010E947507E82F882391F09F
:100F9000F9811F3310F18F2F8E7FF9F0D40116964F
:100FA0008D919C91009711F484E892E0F40197836D
:100FB0008683E0E08E2F0F90DF91CF911F910F91EC
:100FC000FF90EF90DF90CF90BF90AF909F908F9069
:100FD0007F906F905F904F9008952F2F2F7730E084
:100FE00040E050E060E070E080E090E0012F0E947F
:100FF000421D422A532A642A752AA62AB72AC82AD9
:10100000D92A195FF7FDBBCFD7014C9211965C929C
:10101000119712966C92129713967C9213971496CE
:10102000AC9214971596BC9215971696CC9216977B
:101030001796DC92BFCF8F929F92AF92BF92CF92C2
:10104000DF92EF92FF920F931F93CF93DF931F9244
:10105000CDB7DEB78C015B017A01BE016F5F7F4FB8
:101060000E947507882E81111CC0F801848195812A
:10107000892B11F0812C06C0E114F104D9F381E031
:10108000F7018083882D0F90DF91CF911F910F91F1
:10109000FF90EF90DF90CF90BF90AF909F908F9098
:1010A0000895898187FD0AC0C82ED12CF12CE12C2E
:1010B000F501C082D182E282F382E4CF8F77C82E1D
:1010C000D12CF12CE12C97E0992EBE016F5F7F4F60
:1010D000C8010E947507882369F29981FFE1F9151B
:1010E00010F52EE3291558F02FEF892F8F7749F04F
:1010F000F7FE03C081E0291729F080E003C021E05A
:10110000F4CF81E08170EFE3E91510F0811125C083
:10111000F80186819781009711F484E892E0F80144
:1011200097838683A7CFFCE19F121CC0892F80770D
:1011300021F0892F8877883759F7492F4F7050E071
:1011400070E060E08CE1440F551F661F771F8A95A1
:10115000D1F7C42AD52AE62AF72AF7E09F0E97FD91
:10116000B4CFA6CF492F4F7750E070E060E0092C54
:1011700004C0440F551F661F771F0A94D2F7E9CFAA
:101180008F929F92AF92BF92EF92FF920F931F9315
:10119000CF93DF9300D01F92CDB7DEB78C017B01D8
:1011A00050E040E0BE016F5F7F4F0E941B08882324
:1011B00001F198E0F801D70101900D929A95E1F7BD
:1011C00049815A816B817C81F70184809580B12CA3
:1011D000A12C84169506A606B706D0F4F8018681E0
:1011E0009781009711F484E992E0F8019783868350
:1011F00080E00F900F900F900F90DF91CF911F9193
:101200000F91FF90EF90BF90AF909F908F900895B7
:1012100055834483F80124813581241B350B3583A4
:101220002483E7CF8F929F92AF92BF92EF92FF926B
:101230000F931F93CF93DF9300D01F92CDB7DEB7EC
:101240008B017A01F9011082FB0111821082FA01EF
:101250001082118212821382A901BE016F5F7F4F3B
:101260000E941B088823B9F049815A816B817C81D7
:101270004A015B0193E0B694A794979487949A955A
:10128000D1F7F70180829182A282B38247705527FD
:10129000F801518340830F900F900F900F90DF91D2
:1012A000CF911F910F91FF90EF90BF90AF909F90C3
:1012B0008F900895EF92FF920F931F93CF93DF9338
:1012C000CDB7DEB760970FB6F894DEBF0FBECDBFC7
:1012D0008C017A0181E0452BA1F06115710561F562
:1012E000D8018D919C918A589A4031F1F1E1EF1625
:1012F000F104A0F4A701BE016F5F7F4FC8010E94F7
:101300005A0960960FB6F894DEBF0FBECDBFDF91CD
:10131000CF911F910F91FF90EF90089540E150E021
:10132000BE016F5F7F4FC8010E945A09882349F3AD
:10133000E0E1EE1AF108DACFD80114968D919C9174
:1013400015978E159F0560F416968D919C910097C8
:1013500011F486E792E0F8019783868380E0D1CF8D
:10136000ED91FC91A701C8011995F80181110DC0FB
:10137000268137812115310511F428E432E0D801A6
:1013800017963C932E931697BCCF248135812E154A
:101390003F0518F415821482B4CF2E193F09358306
:1013A0002483AFCF0F931F93CF93DF938C01EB0177
:1013B0004C815D814115510579F48A819B81F80149
:1013C000938382838E819F819783868381E0DF91DF
:1013D000CF911F910F91089570E060E0CE010E94BF
:1013E0005A098111EACFF3CF0F931F93CF93DF9365
:1013F00000D01F92CDB7DEB78C016130710531F19D
:1014000078F06230710551F16530710509F448C01A
:10141000FC01868197810097F1F58BEB92E03BC050
:1014200041E050E0BE016F5F7F4FC8010E945A0942
:10143000882319F0998197FDF3CF0F900F900F90AB
:101440000F90DF91CF911F910F91089548E050E0E8
:1014500070E060E0C8010E945A09EFCF50E040E020
:10146000BE016F5F7F4F0E941B08882331F34981C3
:101470005A816B817C81DB01CA01AA27BB274817EF
:1014800059076A077B0721F3F80186819781009746
:1014900011F48CEA92E0F8019783868380E0CDCF47
:1014A00044E050E0D5CFF894E2E0F2E0828193810D
:1014B000880F991F9093A9008093A8007894F894BE
:1014C00080819181880F991F9093AB008093AA002F
:1014D0007894F89484819581880F991F9093AD003A
:1014E0008093AC0078940895FB0101900020E9F707
:1014F0003197AF01461B570B0C947701FC01828199
:1015000093819C01240F351F338322830E94BF1FC8
:1015100081E00895DC0112962D913C911397F90119
:10152000E40FF51F1396FC93EE9312976115710566
:1015300021F0CB01B9010E94BF1F81E00895FC0199
:10154000349627E1DF011D922A95E9F7FC017183AA
:101550006083538342830C9450030F931F93CF9364
:10156000DF938C01EB01E881F98164817581DB01F6
:10157000ED91FC9185919591A591B491892F9A2F28
:10158000AB2FBB27807C9927AA27BB27AE014E5FD4
:101590005F4F80389105A105B10511F04A815B814B
:1015A000C8010E949F0A2696F801D08FC78BDF9151
:1015B000CF911F910F910895CF93DF93CDB7DEB7F1
:1015C0006B970FB6F894DEBF0FBECDBFFC018289CA
:1015D000982F907C09F073C0982F9073B1F19032DE
:1015E00039F40788F08DE02D81E02081318142C0FF
:1015F0009033B9F3903189F4A789B08D109769F0D1
:1016000081E09C91911121C06B960FB6F894DEBFDA
:101610000FBECDBFDF91CF910895A081B181149607
:101620002D913C91232B89F48F70863080F4A5890D
:10163000B689868597858A0F9B1FA817B90711F46D
:1016400081E0E2CF2D912223C1F380E0DDCF86300F
:1016500021F40588F689E02DC7CF873031F405885D
:10166000F689E02D81E09081CDCF8B3031F481E09F
:1016700026853785232B49F7C7CF8850990B0297CA
:1016800020F745895689618D728DCE0101960E94A1
:101690009F0A8823A9F2CE0101960E94DC0A8823C2
:1016A00009F4B2CFCE0101960E94D602CE01019676
:1016B0000E9450038D819E81892B69F7C1CF90389C
:1016C00021F481E025893689D5CF903409F0BDCF4A
:1016D0008F708A3009F4BDCFA081B18116962D910B
:1016E0003C9182E0213B380709F4B3CF81E0C2CFBF
:1016F0006F927F928F929F92AF92BF92CF92DF9222
:10170000EF92FF920F931F93CF93DF9300D000D0FF
:1017100000D01F92CDB7DEB76C017B01DB01529682
:101720008C915297982F9073903311F55796ED91B5
:10173000FC915897208131811C968D919C9128179E
:10174000390701F5F701828925893689232BC1F5EF
:101750008073C1F4F60180859185009711F48DECBA
:1017600092E0D60119969C938E93189780E00BC057
:10177000903141F75796ED91FC913097C9F08081F7
:101780008111E0CF81E02A960FB6F894DEBF0FBE3C
:10179000CDBFDF91CF911F910F91FF90EF90DF9020
:1017A000CF90BF90AF909F908F907F906F90089553
:1017B000807C41F6CB010E94DC0A882319F2E2CF3B
:1017C000982F907C9034E9F40190F081E02D068010
:1017D000F781E02D3097B1F2A701B60190E080E0EB
:1017E00019958111CFCFF60120853185211531055D
:1017F00011F424EE32E0D60119963C932E931897FB
:10180000C2CF282F2073203209F019C1D7010788D1
:10181000F08DE02DA080B180A114B10409F4B2CF05
:10182000903879F050962D913C912A153B0548F45B
:10183000F60180859185009709F093CF83EF92E0C0
:1018400090CF8F7010E000E0863008F0C1C0F70143
:10185000448555859A0140E050E060E070E080E00A
:1018600090E003E00E94421D022F242F0260132FFC
:10187000352FAB01BC01C6010E944B05882309F43A
:1018800075CFD70152968C918F70843009F5450140
:10189000880C991C880C991C840120E030E040E001
:1018A00050E060E070E0C6010E944B05882309F417
:1018B0005DCFF6018081918110E000E0892B09F075
:1018C0005FC0A40170E060E0C6010E94EC045BCF41
:1018D000853039F4450183E0880C991C8A95E1F73D
:1018E000DBCFFE0131964F018AE0DF011D928A9520
:1018F000E9F7F7016588768810E000E0B701C401D8
:101900000E94F605811112C0D60118962D913C91C6
:101910002115310539F429853A852115310511F450
:101920002BE033E0F601318720872DCFD701559684
:101930008D919C9156971E962D913C911F97820FE9
:10194000931F56969C938E9355970F5F1F4FA0162B
:10195000B106A1F656967C926E9255978F80988428
:101960009BCFF7018589968926853785820F931F3E
:10197000968B858B0F5F1F4FA016B10609F402CF1F
:10198000D70152968C918F708450990BB7010297B2
:1019900030F4C6010E942A058111E3CFE7CEC601CB
:1019A0000E94F605F9CF80E03CC0C6010E94960D6A
:1019B00039C0F7018589968926853785820F931F5F
:1019C000968B858B0F5F1F4FA016B10609F4DACEF8
:1019D000D70152968C915297982F907C903851F560
:1019E0008F708650990B029728F555968D909C9094
:1019F0005697F4018081918156969C938E935597CA
:101A0000B701892B91F6C6010E941607882359F267
:101A1000198241E050E0BE016F5F7F4FC6010E9416
:101A2000EC048170D70156969C928E925597811145
:101A3000C0CF9CCEB701C6010E94960DF8CFB7016A
:101A4000C6010E94960D9FCEEF92FF920F931F93B7
:101A5000CF93DF93CDB7DEB7E6970FB6F894DEBF2E
:101A60000FBECDBF7C01CE014C960E949F0A8823F9
:101A7000C1F08EA58F708A3009F04FC0E9A9FAA98C
:101A8000008111810115110571F4CE014C960E945F
:101A9000D602CE014C960E94500388A199A1892BB1
:101AA00041F781E022C0D801ED91FC910280F381E1
:101AB000E02DB801309731F0C7011995811129C087
:101AC00080E013C0CE0101960E94AD0A81111AC0B8
:101AD000F701208531852115310511F422E133E02C
:101AE000D70119963C932E931897E6960FB6F89463
:101AF000DEBF0FBECDBFDF91CF911F910F91FF9041
:101B0000EF900895BE016F5F7F4FC7010E94780B71
:101B1000D5CFF80104811581B5CFBE01645E7F4F3A
:101B2000C7010E94780B8111B0CFCACF6F927F920C
:101B30008F929F92AF92BF92CF92DF92EF92FF92DD
:101B40000F931F93CF93DF9300D000D000D01F924C
:101B5000CDB7DEB7DB0155962D913C91232B09F4CF
:101B60006BC16B017C010E941607811102C080E0ED
:101B70002EC0F6019289292F2F702C3008F052C107
:101B8000E22FF0E08827E853F24F8F4F0C943A1D74
:101B9000D40DFC0DFC0DFC0D010E010E060E310ED8
:101BA0006B0E6B0E120F0C0FD6015596ED91FC913A
:101BB00001E08081811101C000E010E020E030E010
:101BC00040E050E060E070E0C7010E944B052A96BB
:101BD0000FB6F894DEBF0FBECDBFDF91CF911F913E
:101BE0000F91FF90EF90DF90CF90BF90AF909F90BC
:101BF0008F907F906F900895B601C7010E94F605FF
:101C0000E6CFB601C7010E942A05E1CFD60155965D
:101C1000ED91FC915697309741F450E040E070E030
:101C200060E0C7010E94E906D2CF40815181907CDB
:101C3000A1F41E968D919C9102978417950768F4E4
:101C4000F70180859185009711F484E293E0D70134
:101C500019969C938E9318978ACFBF016E5F7F4F22
:101C6000E0CF907C9038F9F0F60186859785009753
:101C700061F4D70118968D919C91009711F488E337
:101C800093E0F7019187808772CF0197D60155962F
:101C90006D917C91FB0150E040E06115710559F4B4
:101CA00050E040E0BECF8FEF9FEFF0CF222309F44A
:101CB000B8CF4F5F5F4F219148175907B9F72223DB
:101CC00009F4AFCFF70180859185009709F0BFCF68
:101CD0008BE493E0BCCFF601818D928D892B49F482
:101CE000D70118968D919C91009759F68FE593E056
:101CF000C8CF293099F1D60155966D907C905697B2
:101D000059968D909C90FE0131965F018AE0DF012B
:101D10001D928A95E9F7A301B401CF010E94240D19
:101D2000882381F1CF80D884860120E030E040E034
:101D300050E060E070E0C7010E944B05882309F481
:101D400046CFF701208131812115310519F5A60112
:101D500070E060E0C7010E94EC0439CF4789508DE4
:101D60004115510541F2FA0134970190F081E02DBF
:101D7000309709F242505109B601C70119958111F6
:101D8000BACFF5CE29853A85D70119963C932E9383
:101D900018971DCF868197818C0D9D1D448155819B
:101DA0004817590740F480859185009709F069CF5D
:101DB0008CE392E066CF3A832983828193819C836E
:101DC0008B83DE82CD8218861F821A861986A30134
:101DD000B401C5010E94240D4F815885F701268169
:101DE0003781240F351F378326832B813C81338332
:101DF000228329853A85C416D50619F431872087B0
:101E0000E6CE2115310511F428E733E0D701199604
:101E10003C932E931897ABCEF6014685578565897E
:101E20007689FFCED70118968D919C91009709F085
:101E300028CF83E692E025CF81E0C9CE4F925F9212
:101E40007F928F929F92AF92BF92CF92DF92EF924A
:101E5000FF920F931F93CF93DF9300D000D01F9278
:101E60001F92CDB7DEB7DC01FA0192899F709C30DA
:101E700008F03EC32A014D01E92FF0E08827EC5B12
:101E8000F04F8F4F0C943A1D500F920F920F920FFC
:101E9000E41005112E118811E011E01178123B12A7
:101EA0006115710569F06F3F710551F0D401169607
:101EB0008D919C91009709F083C18CE893E080C1DB
:101EC000D20155960D911C9150E040E0BE016F5F2C
:101ED0007F4FC4010E941B08782E882361F081E0A7
:101EE00049815A816B817C81452B462B472B09F414
:101EF00080E0F8018083872D28960FB6F894DEBF26
:101F00000FBECDBFDF91CF911F910F91FF90EF904A
:101F1000DF90CF90BF90AF909F908F907F905F9019
:101F20004F9008956115710521F06F3F710509F01B
:101F3000BDCFBE016F5F7F4F923009F071C0C40109
:101F40000E94A107782E8823B1F2D2011E968D91AE
:101F50009C911F978830910539F5A980BA80CB8074
:101F6000DC80ED80FE800F8118855596ED91FC9107
:101F7000A082B182C282D382E482F5820683178373
:101F800029813A814B815C816D817E818F81988529
:101F90000E94781D09F4AFCFF401868197810097E4
:101FA000C9F58CE993E036C084309105A1F43981FC
:101FB0002A819B818C815596ED91FC91A32EB22EA6
:101FC000C92ED82E3083218392838383E12CF12C78
:101FD00000E010E0D5CF8230910561F499818A81CB
:101FE0005596ED91FC91A92EB82E90838183C12C3A
:101FF000D12CECCF019739F4A9805596ED91FC9145
:10200000A082B12CF4CFF40186819781009711F45E
:1020100081E592E0D40117969C938E931697DCC1CC
:10202000933009F053C0C4010E94A107782E882381
:1020300009F461CFF9813A814B815C816D817E81A8
:102040002F2F8F81988501E00E945D1D59016A0143
:102050007B01E82F192F2F2F217030E040E050E056
:1020600060E070E080E090E0A0E07E2E0E94811DA4
:1020700041F0A094B094C094D094E094F094709403
:102080001095D2011E968D919C911F9788309105D5
:1020900009F03FC055960D90BC91A02DAC921196C1
:1020A000BC9211971296CC9212971396DC921397CA
:1020B0001496EC9214971596FC92159716967C92AE
:1020C000169717961C937724739415CFC4010E941A
:1020D000A107782E882309F40ECF09811A812B815C
:1020E0003C814D815E816F817885F201868597857F
:1020F00058016901089721F47A01762E172FC1CF74
:10210000330F000B102F9801E02EF02E702E102FA1
:10211000B8CF8430910539F5A501B601F201A58942
:10212000B6894D935D936D937C9313979501FC2D28
:10213000BD2D770F440B542FBA01042FA42F842FE9
:10214000942F4F2F5B2F602F7A2F072D0E94781D21
:1021500009F4B9CFD40116968D919C91009781F521
:102160008CE993E02DC08230910589F4F201A589B4
:10217000B689AC921196BC922A2D3B2DFB2DFF0FF8
:10218000FF0BBF2F0F2FAF2F8F2F9F2FDACF01976E
:1021900079F4F201A589B689AC922A2D3A2D330F34
:1021A000330BF32FB32F032FA32F832F932FC9CFDD
:1021B000D40116968D919C91009711F481E592E0DF
:1021C000F4019783868308C16530710521F06F3F64
:1021D000710509F06BCED20155960D911C9144E02A
:1021E00050E0BE016F5F7F4FC4010E945A09782EF4
:1021F000882309F480CE89819A81AB81BC81F80162
:1022000080839183A283B38376CE6130710521F000
:102210006F3F710509F04ACED20155960D911C9180
:1022200048E050E0BE016F5F7F4FC4010E945A0931
:10223000782E882309F45FCE79816A815B814C8195
:102240003D812E819F818885F8017083618352834F
:10225000438334832583968387834DCE6230710513
:1022600009F024CE50E040E0BE016F5F7F4FCD010A
:102270000E941B08782E882309F43DCE49815A819B
:102280006B817C8141155105F1E06F07710550F0BC
:10229000D40116968D919C91009709F091CF8EEA0A
:1022A00093E08ECF9A012E5F3F4FC901B0E0A0E0CE
:1022B00084179507A607B70750F4D40116968D9199
:1022C0009C91009709F07CCF8CEA92E079CFD20103
:1022D00052968C915297807C803849F4F401868123
:1022E0009781009709F096CE8DEB93E093CEF201A3
:1022F000868597858217930758F25596ED91FC9144
:1023000041935193BF01C4010E945A09782EF3CD25
:102310006230710549F0F40186819781009709F0D8
:1023200079CE8CE893E076CEFA010589168950E0E3
:1023300040E0BE016F5F7F4FCD010E941B08782EE9
:10234000882309F4D8CD89819A81AB81BC818F3FE4
:10235000FFEF9F07AF07BF0709F4AFCFAC014F5F97
:102360005F4F6A01F12CE12CC816D906EA06FB067C
:1023700008F4A3CFF2012289207C203851F4D40143
:1023800016968D919C91009709F01ACF8DEB93E0F2
:1023900017CF268537852417350750F4D4011696B4
:1023A0008D919C91009709F00BCF8FEC93E008CFB3
:1023B000800F911FDC011C9249815A81B801A3CF83
:1023C0006230710509F0A7CFBE016F5F7F4FCD016D
:1023D0000E94C008811102C0712C8DCDF201818D47
:1023E000928D892B51F4D40116968D919C91009772
:1023F00009F0E6CE8FE593E0E3CE82898F708930D5
:10240000C1F0F2018289982F907C20E030E031F415
:10241000807321E030E0803209F420E0F201458948
:102420005689618D728DCE0101960E948815782E95
:1024300019C04789508D4115510519F3FA01349798
:102440000190F081E02D3097E1F242505109B20144
:10245000CE0101961995782E882321F08D819E81D9
:10246000892B79F6BE016F5F7F4FC4010E94D209AC
:10247000811141CDB1CF6230710509F017CD50E027
:1024800040E0BE016F5F7F4FCD010E941B08782E98
:10249000882309F430CD89819A81AB81BC81009772
:1024A000F1E0AF07B10508F0F3CEF201468557859C
:1024B0000097A105B10539F470E060E0858996893F
:1024C0000E94C81F18CD8A0130E020E080179107D4
:1024D000A207B30751F0D40116968D919C910097F5
:1024E00009F06ECE8FED93E06BCE658976890BCFC8
:1024F00016968D919C911797009709F08CCD83E6E5
:1025000092E089CD8F929F92AF92BF92CF92DF924D
:10251000EF92FF920F931F93CF93DF93CDB7DEB768
:10252000A3970FB6F894DEBF0FBECDBF8C015B0141
:102530007A01DA0152968C915297982F907C9034C0
:1025400009F425C1903809F418C19111CFC1982F11
:102550009073903109F467C078F4992309F46AC044
:10256000D80116968D919C91009711F483E692E024
:10257000F801978386838CC0903209F462C090334F
:1025800079F78F708850990B029708F0EDC0579635
:10259000ED91FC915897208131811C968D919C91F1
:1025A0001D972817390709F4DFC01E964D915C91DD
:1025B0001F9770E060E055968D919C910E94C81F16
:1025C000D7015996ED91FC9184819581892B59F41D
:1025D00086819781892B39F4A281B3818D919C9159
:1025E000892B09F4C1C0D70155964D915C91BF016B
:1025F000CE0101960E949F0A882309F4B5C0CE013E
:1026000001960E947F14D82E8111AEC0F8018681F8
:102610009781009711F480E194E0D80117969C937C
:102620008E9316977FC05796ED91FC91309711F0DD
:1026300081E08083A701B501C8010E941E0FD82E3A
:1026400071C0FA018788908CD4014D915C912685E8
:102650003785429FB001439F700D529F700D11242A
:1026600023893489260F371FB2E0AB16B10409F075
:102670006DC08F70863008F069C0368B258BBE0127
:102680006F5F7F4FC8010E94C008D82E811120C003
:10269000D12C48C0A7016FEF70E0CE0101960E94D7
:1026A0001E0F8823A1F1F40180819181019691830D
:1026B0008083D70155968D919C9156971E962D91AA
:1026C0003C911F97820F931F56969C938E9355971C
:1026D0008D819E81892B51F0F40120813181D701B8
:1026E00050968D919C9128173907A0F28D819E817B
:1026F000892B79F0F80186819781009711F481E0A8
:1027000094E0D80117969C938E931697C1CFD12C45
:10271000EDCFBE016F5F7F4FC8010E94D2098823B1
:1027200009F4B6CF8D2DA3960FB6F894DEBF0FBE79
:10273000CDBFDF91CF911F910F91FF90EF90DF9070
:10274000CF90BF90AF909F908F900895F701368BF8
:10275000258BCA010196D4018D939C938089918920
:102760004817590738F666CFF7018485958507889D
:10277000F08DE02D918380835DCFD80116968D91E9
:102780009C91009709F0F4CE8DEB93E0F1CEED91A2
:10279000FC9186819781892B21F4C8010E94F4095C
:1027A0004ECF62307105B9F5BE016F5F7F4FC80132
:1027B0000E94C008D82E882309F4B4CFAD80BE8013
:1027C000D701ED91FC910680F781E02DA70170E023
:1027D00060E0CE0101961995D82E81110EC0F80146
:1027E00086819781009709F018CF8F81988500978F
:1027F00009F013CF87E294E010CF8D819E8100977E
:1028000019F08A159B05D0F2BE016F5F7F4FC8019A
:102810000E94D20914CF6130710509F44DC070F0E7
:102820006530710509F456C0D80116968D919C91BA
:10283000009709F09DCE8BEB92E09ACECE010196E7
:102840004C01B12CA12C64019FEFA91AB90AABE08D
:10285000AA16B10449F4F80186819781009709F01E
:1028600050CF84E892E04DCF41E050E0B401C80180
:102870000E945A09882309F40BCFBFEF8B1A9B0AD9
:10288000F601808187FDDFCF8AE89AE09D8F8C8FEB
:10289000CE0101969F8F8E8FB9A2A8A21BA21AA269
:1028A000D701ED91FC910680F781E02DA70170E042
:1028B00060E04B961995C3CE48E050E0BE016F5FD3
:1028C0007F4FC8010E945A0928E0A22EB12C811125
:1028D000DBCFDECE44E050E0BE016F5F7F4FC8012A
:1028E0000E945A0994E0A92EB12CF1CFF8018681FB
:1028F0009781009709F005CF83E692E002CFCF924F
:10290000DF92EF92FF920F931F93CF93DF93CDB798
:10291000DEB7AA970FB6F894DEBF0FBECDBF8C010D
:102920006E018CE1C80ED11C88E0D6011D928A95FB
:10293000E9F71CA21DA21EA21FA219A618A6D80163
:10294000ED91FC91848195810097C9F02AE83AE0E5
:102950003D8F2C8F9F8F8E8F8FEF9FEF99A388A332
:102960009E01265D3F4FAE014C5D5F4FBE01685D2D
:102970007F4FC6010E941209882309F4C7C0F801DD
:102980008289282F2F702A3009F05DC00588F689CA
:10299000E02DE080F180E114F10409F040C04CA189
:1029A0005DA16EA17FA1411551056105710549F138
:1029B000F80184859585B0E0A0E0481759076A07BB
:1029C0007B07F9F468A579A5A801C6010E948212C7
:1029D000882309F49BC09E01265D3F4FAE014C5DEC
:1029E0005F4FBE01685D7F4FC6010E9412098823B8
:1029F00009F48CC0D8015796ED91FC91309709F0FD
:102A00001082C8010E94D602C8010E945003F8013A
:102A100084819581892B09F0B2CF81E04AC0B7014A
:102A2000CE0101960E94AD0A882349F0D70116967F
:102A30001C92CE0101960E947F148823D1F1F701E8
:102A4000E480F580A8CF982F907C09F053C0982F90
:102A500090739031E9F50788F08DE02D309709F0FB
:102A600010822850330BF801858996892230310570
:102A7000C0F5018CF28DE02D24813581232B51F49A
:102A800026813781232B31F4A281B3812D913C9192
:102A9000232B39F1AC01BF01CE0101960E949F0AA0
:102AA000882309F47CCFCE0101960E947F14811106
:102AB00076CFAA960FB6F894DEBF0FBECDBFDF91DA
:102AC000CF911F910F91FF90EF90DF90CF900895DD
:102AD000D80185FFC6CF5796ED91FC9111821082E7
:102AE0005ECFD8011E964D915C9170E060E00E942F
:102AF000C81F55CF903809F052CFD8010388F48908
:102B0000E02D1182108285FF4ACFE5CF80E0D1CF42
:102B10002F923F924F925F926F927F928F929F92ED
:102B2000AF92BF92CF92DF92EF92FF920F931F93DB
:102B3000CF93DF93CDB7DEB7C155D1090FB6F89467
:102B4000DEBF0FBECDBF7C01690127961FAE1EAE52
:102B500027971FAA18AE19AE1AAE1BAE1CAE1DAE3B
:102B60001EAECE014C960E949F0A882309F464C2CF
:102B7000CD2809F061C2CE014C960E947F148111CC
:102B80005BC2D70116962D913C912115310511F4A8
:102B900020E134E0F70137832683CF5ADF4F0FB6A9
:102BA000F894DEBF0FBECDBFDF91CF911F910F9183
:102BB000FF90EF90DF90CF90BF90AF909F908F905D
:102BC0007F906F905F904F903F902F9008959E015F
:102BD000295B3F4FAE01415C5F4FBE016D5B7F4F94
:102BE000C7010E941209811107C028968FAD28974E
:102BF00081110EC180E0D1CF23968CAC9DACAEACE0
:102C0000BFAC239781149104A104B10461F4D701EE
:102C100016968D919C91009711F487E394E0F7014B
:102C200097838683E7CF88A599A5B0E0A0E08816B2
:102C30009906AA06BB0609F49BC0EC8DFD8D448560
:102C4000558570E060E0481559056A057B0508F474
:102C50003CC0C8A0D9A088169906AA06BB0620F4D5
:102C60008085918599A388A3CE014C960E94D602B7
:102C7000AC8DBD8D8AA19BA1880F991F880F991FCC
:102C8000ED91FC91E80FF91F85919591A591B49173
:102C900002E0B695A795979587950A95D1F788256F
:102CA0009925AA25BB258F739927AA27BB27892B8E
:102CB0008A2B8B2B09F449C088A199A1C816D90683
:102CC00099F6CE014C960E945003411451046104C0
:102CD000710409F066C08EA58F708A3009F453C064
:102CE000C8A0D9A0CE014C960E94D602AC8DBD8D55
:102CF0008AA19BA1880F991F880F991FED91FC91C4
:102D0000E80FF91F85919591A591B491892F9A2F7C
:102D1000AB2FBB278F709927AA27BB270A97A1053E
:102D2000B10509F0C1C0CE014C960E94500381113B
:102D30002AC02C968EAD9FAD2C97892B09F0B7C178
:102D400044244A94542C32012CC0CE014C960E944B
:102D5000500388A599A5B0E0A0E088169906AA06B8
:102D6000BB0609F0A9CF8EA58F708A3009F4A4CFD5
:102D70008EA5982F9F709A3009F0E9C04114510434
:102D80006104710471F4E9A9FAA9208131812C96BA
:102D90003FAF2EAF2C97232B99F248A459A4712C46
:102DA000612C23968CAC9DACAEACBFAC2397841445
:102DB0009504A604B70408F470C1D70114960D90C9
:102DC000BC91A02D6296BFAFAEAF62972596EEADD7
:102DD000FFAD25976096FFAFEEAF60972C96CEAC17
:102DE000DFAC2C97F7018481958162962EAD3FADC3
:102DF0006297C114D10409F44CC12817390709F4AA
:102E00005EC0D70114968D919C91892B09F0DFCE7D
:102E10002E96EEADFFAD2E97319641F027968EADF2
:102E20009FAD27978215930509F0B0C0EC8DFD8DFD
:102E3000828593850097B1F18134910510F080E48B
:102E400090E09C0145E0369527954A95E1F7FE0113
:102E5000F79650E040E02417350709F004C1AC01B3
:102E60004F715527452BF1F0220F331F220F331FCF
:102E7000FE01E20FF31F8F7120E2281B8FEF9FEFFF
:102E8000DC0104C0B695A795979587952A95D2F74A
:102E900047A950AD61AD72AD481759076A077B0766
:102EA00009F0EAC081E079CE88A199A1C816D906B7
:102EB00009F018CFCE014C960E9450033ACFD601AC
:102EC000ED91FC910190F081E02D309789F06096B2
:102ED0000EAD1FAD6097A5019401B601C70119950C
:102EE000882309F487CED6011496CD90DC907ACF52
:102EF000B601CE0101960E94AD0A81110DC0F70105
:102F000086819781009711F482E193E0D7011796AB
:102F10009C938E9316976ECE8D859E85B0E0A0E033
:102F200088169906AA06BB06F1F68B819C81892B2F
:102F3000D1F221E0F6012683AE014F5F5F4F60962C
:102F40006EAD7FAD6097C7010E948212C9CF8073BA
:102F5000803209F040C08BA99CA92A96AEADBFADC6
:102F60002A978A179B0761F588A199A12E96EEAD45
:102F7000FFAD2E978E179F07E9F0319689F02796BF
:102F80002EAD3FAD27972215330551F0D701169688
:102F90008D919C91009709F042CE80E494E03FCE61
:102FA00027961FAE1EAE27972CA43DA42E969FAF4A
:102FB0008EAF2E9725E430E02C0F3D1F3CAB2BABA2
:102FC00025966EAD7FAD2597AE01445E5F4FC7017C
:102FD0000E94821269C08111F3CF8CA19DA180341F
:102FE000910570F7FC0155E0F695E7955A95E1F7E4
:102FF000EE0FFF1FEE0FFF1FA1E0B0E0AC0FBD1FF3
:10300000EA0FFB1F8F71992741E050E060E070E00C
:1030100004C0440F551F661F771F8A95D2F786A9F3
:1030200097A9A0ADB1AD842B952BA62BB72B86AB62
:1030300097ABA0AFB1AFC4CF312C212CEFEFFFEF96
:103040002E96FFAFEEAF2E972C961FAE1EAE2C978E
:10305000412C512C32019E01245D3F4F2A963FAFF7
:103060002EAF2A97CECE81909190A190B1908B20D7
:103070008A208920809451F0D70116968D919C91D9
:10308000009709F0CCCD8DEC92E0C9CD4F5F5F4F3A
:10309000E2CE2817390709F0B4CE25966EAD7FAD84
:1030A0002597C7010E94F4098111ABCEA3CD2396C9
:1030B0008CAC9DACAEACBFAC23977FCE1F920F9271
:1030C0000FB60F9211242F933F938F939F93AF933B
:1030D000BF938091190590911A05A0911B05B0919D
:1030E0001C053091180523E0230F2D3758F5019664
:1030F000A11DB11D209318058093190590931A0501
:10310000A0931B05B0931C0580911D0590911E0591
:10311000A0911F05B09120050196A11DB11D8093BE
:103120001D0590931E05A0931F05B0932005BF9128
:10313000AF919F918F913F912F910F900FBE0F9064
:103140001F90189526E8230F0296A11DB11DD2CF1E
:103150001F920F920FB60F9211240BB60F922F935E
:103160003F934F935F936F937F938F939F93AF930F
:10317000BF93EF93FF9381E295E00E94F501FF91E9
:10318000EF91BF91AF919F918F917F916F915F91DF
:103190004F913F912F910F900BBE0F900FBE0F904C
:1031A0001F9018951F920F920FB60F9211240BB615
:1031B0000F922F938F939F93EF93FF93E09131059D
:1031C000F09132058081E0913705F091380582FD5C
:1031D0001DC0908180913A058F5F8F7320913B05D0
:1031E000821741F0E0913A05F0E0EF5DFA4F958FDC
:1031F00080933A05FF91EF919F918F912F910F90BE
:103200000BBE0F900FBE0F901F9018958081F2CFCC
:103210001F920F920FB60F9211240BB60F922F939D
:103220003F934F935F936F937F938F939F93AF934E
:10323000BF93EF93FF938EEB95E00E94F501FF9112
:10324000EF91BF91AF919F918F917F916F915F911E
:103250004F913F912F910F900BBE0F900FBE0F908B
:103260001F9018951F920F920FB60F9211240BB654
:103270000F922F938F939F93EF93FF93E091CE053F
:10328000F091CF058081E091D405F091D50582FDC4
:103290001DC090818091D7058F5F8F732091D805D5
:1032A000821741F0E091D705F0E0E254FA4F958F94
:1032B0008093D705FF91EF919F918F912F910F9060
:1032C0000BBE0F900FBE0F901F9018958081F2CF0C
:1032D000E1E2F5E01382128248EE53E060E070E034
:1032E00044835583668377838EE292E09183808363
:1032F0002DEC30E0358724872CEC30E037872687AB
:1033000028EC30E0318B208B29EC30E0338B228BA2
:103310002AEC30E0358B248B2EEC30E0378B268B7B
:10332000118E128E138E148EEEEBF5E01382128244
:1033300044835583668377839183808385EC90E013
:103340009587848784EC90E09787868780EC90E06F
:10335000918B808B81EC90E0938B828B82EC90E060
:10336000958B848B86EC90E0978B868B118E128EDA
:10337000138E148E0895CF93DF93CDB7DEB76A977F
:103380000FB6F894DEBF0FBECDBF789484B58260CF
:1033900084BD84B5816084BD85B5826085BD85B5F9
:1033A000816085BD80916E00816080936E00109277
:1033B00081008091810082608093810080918100F2
:1033C0008160809381008091800081608093800083
:1033D0008091B10084608093B1008091B0008160E1
:1033E0008093B000809191008260809391008091E1
:1033F0009100816080939100809190008160809322
:1034000090008091A10082608093A1008091A10032
:1034100081608093A1008091A00081608093A000D2
:10342000809121018260809321018091210181603E
:1034300080932101809120018160809320018091FF
:103440007A00846080937A0080917A008260809311
:103450007A0080917A00816080937A0080917A006E
:10346000806880937A001092C1000E94F8000E9448
:10347000F8008CED95E09093050280930402909300
:10348000070280930602909303028093020282E077
:103490008093A0008AE18093A1008FE19EE4909345
:1034A000A7008093A60080910101886080930101AC
:1034B0008091A00080688093A00088EB9BE09093AF
:1034C000A9008093A80020910101206120930101AF
:1034D0002091A00020622093A0009093AB008093E5
:1034E000AA00209101012062209301012091A000F7
:1034F00028602093A0009093AD008093AC0068EE0C
:1035000073E080E090E00E9445010E94530A6CED58
:1035100075E080E090E00E94450188E19CE00FB6F4
:10352000F894A895809360000FBE90936000A895D2
:103530000CE814E042E0242E312CAA24A394B12CF0
:103540006AE8862E6AE0962EA8958FB7F894409088
:10355000190550901A0560901B0570901C058FBFCF
:1035600080911605909117059201281B390B2A307E
:10357000310508F47CC250921705409216058091DF
:10358000880490918904A0918A04B0918B04892BBE
:103590008A2B8B2B71F12FB7F8948091190590919C
:1035A0001A05A0911B05B0911C052FBF40918804FE
:1035B0005091890460918A0470918B04841B950B4F
:1035C000A60BB70B84369105A105B10590F08CEDE3
:1035D00095E09093090280930802909301028093F2
:1035E0000002109288041092890410928A041092AA
:1035F0008B048EEB95E00E94D501181619060CF08D
:103600002EC18EEB95E00E94B3012091860430918B
:1036100087042130310509F4D4C008F4CBC022302E
:10362000310539F72091800430918104203831052B
:1036300020F4F901E457FB4F80832F5F3F4F309315
:103640008104209380048091820490918304281740
:10365000390778F2198A1A8A1B8A1C8A1D8A1E8ADF
:103660001F8A188E9A8289821C830B839E838D8386
:1036700018861F8230E020E0AE014F5E5F4F6EE0A3
:1036800072E0CE0101960E948815882309F4CFC00C
:103690000E94200160931205709313058093140516
:1036A00090931505C988DA88EB88FC8820E030E023
:1036B00040E85FEBC701B6010E94291F18160CF005
:1036C0009AC020E030E040E85FE3C701B6010E9405
:1036D000291F18160CF496C020E030E040E85FE3A4
:1036E000C701B6010E948E1D20E030E04AE754E495
:1036F0000E942E1F20E030E040E05FE30E942E1F7A
:1037000020E030E04AE754E40E948E1D0E946C1EC7
:103710007093090260930802CD88DE88EF88F88CE8
:1037200020E030E040E85FEBC701B6010E94291FAE
:1037300018160CF06EC020E030E040E85FE3C701EF
:10374000B6010E94291F18160CF46AC020E030E070
:1037500040E85FE3C701B6010E948E1D20E030E023
:103760004AE754E40E942E1F20E030E040E05FE38F
:103770000E942E1F20E030E04AE754E40E948E1D94
:103780000E946C1E70930102609300022FB7F894A0
:103790008091190590911A05A0911B05B0911C0507
:1037A0002FBF8093880490938904A0938A04B093D8
:1037B0008B0413C080938404B0928704A092860483
:1037C00018CF809385049091840490938304809310
:1037D000820401978038910528F010928704109296
:1037E000860407CF109281041092800430928704DF
:1037F00020928604FECEC12CD12C30E8E32E3FEB84
:10380000F32E6ACFC12CD12C20E8E22E2FE3F22E2A
:1038100063CFC12CD12C90E8E92E9FEBF92E96CFE7
:10382000C12CD12C80E8E82E8FE3F82E8FCF61E6F3
:1038300074E08EEB95E00E94740A6F8178856115C3
:10384000710511F46BE073E081E295E00E94740A67
:103850006CE774E081E295E00E94740ABECF0E949A
:103860002001C0901205D0901305E0901405F0904F
:1038700015056C197D098E099F09613472448F40CA
:10388000910528F4C114D104E104F10471F48CED24
:1038900095E0909303028093020290930502809337
:1038A000040290930702809306020E9420016C1983
:1038B0007D098E099F09603472448F409105D0F4D0
:1038C000CD28CE28CF28B1F080910802909109022E
:1038D0009093030280930202809100029091010272
:1038E00090930502809304028CED95E0909307027B
:1038F000809306020E94530A809110059091110551
:103900009201281B390B2233310508F4AAC01D8609
:103910001E861F86188A80910C0590910D05A09136
:103920000E05B0910F05AC01BD014F5F5F4F6F4FAA
:103930007F4F40930C0550930D0560930E057093D7
:103940000F0589839A83AB83BC83609102027091D7
:10395000030290E080E00E949B1E20E030E04AE7F6
:1039600054E40E948D1D9B01AC010E948E1D20E03D
:1039700030E04AE754E40E94FA1D20E030E040E8DD
:103980005FE30E948D1D6D837E838F839887609196
:1039900004027091050290E080E00E949B1E20E0EE
:1039A00030E04AE754E40E948D1D9B01AC010E9467
:1039B0008E1D20E030E04AE754E40E94FA1D20E02A
:1039C00030E040E85FE30E948D1D69877A878B872E
:1039D0009C872FB7F8946091190570911A05809112
:1039E0001B0590911C052FBF0E949B1E20E030E01C
:1039F0004AE754E40E94FA1D6D877E878F87988B73
:103A00008EE79AE09A8B898B1C8B0B8B20E830E039
:103A10003E8B2D8B188E1F8A1A8E198EAE014F5F2A
:103A20005F4F6CE172E0CE0141960E94240D882325
:103A3000A1F0FF88E88C6E2D8EEB95E00E941702B6
:103A40006F2D8EEB95E00E9417024F2D5E2D6CE8D6
:103A500074E08EEB95E00E94770150921105409240
:103A6000100565E070E080E090E00E9445010E9452
:103A700084026ACDEE0FFF1F881F8BBF0790F6915F
:103A8000E02D1994002E083090F0982F872F762F74
:103A9000652F542F432F322F22270850F4CF220FA7
:103AA000331F441F551F661F771F881F991F0A95D4
:103AB000B2F7002D089597FD1094002E083098F06D
:103AC0000850232F342F452F562F672F782F892FFB
:103AD000912DF4CF15949795879577956795579580
:103AE0004795379527950A95AAF71124002D089533
:103AF0002A153B054C055D056E057F05800791077E
:103B000008950024A7FD00942A17300540055005AC
:103B1000600570058005900508955058BB27AA27B9
:103B20000E94A51D0C94EF1E0E94E11E38F00E9419
:103B3000E81E20F039F49F3F19F426F40C94DE1EA1
:103B40000EF4E095E7FB0C94D81EE92F0E94001FAD
:103B500058F3BA17620773078407950720F079F4C2
:103B6000A6F50C94221F0EF4E0950B2EBA2FA02D73
:103B70000B01B90190010C01CA01A0011124FF271A
:103B8000591B99F0593F50F4503E68F11A16F04015
:103B9000A22F232F342F4427585FF3CF4695379514
:103BA0002795A795F0405395C9F77EF41F16BA0BD9
:103BB000620B730B840BBAF09150A1F0FF0FBB1F87
:103BC000661F771F881FC2F70EC0BA0F621F731FD0
:103BD000841F48F4879577956795B795F7959E3F2D
:103BE00008F0B0CF9395880F08F09927EE0F9795BE
:103BF000879508950E940E1E0C94EF1E0E94E81EE9
:103C000058F00E94E11E40F029F45F3F29F00C9427
:103C1000D81E51110C94231F0C94DE1E0E94001F0D
:103C200068F39923B1F3552391F3951B550BBB27EB
:103C3000AA2762177307840738F09F5F5F4F220F30
:103C4000331F441FAA1FA9F335D00E2E3AF0E0E827
:103C500032D091505040E695001CCAF72BD0FE2F71
:103C600029D0660F771F881FBB1F26173707480705
:103C7000AB07B0E809F0BB0B802DBF01FF279358BD
:103C80005F4F3AF09E3F510578F00C94D81E0C948B
:103C9000231F5F3FE4F3983ED4F3869577956795AD
:103CA000B795F7959F5FC9F7880F911D96958795F2
:103CB00097F90895E1E0660F771F881FBB1F621711
:103CC00073078407BA0720F0621B730B840BBA0BCF
:103CD000EE1F88F7E09508950E94081F88F09F570F
:103CE00098F0B92F9927B751B0F0E1F0660F771F20
:103CF000881F991F1AF0BA95C9F714C0B13091F016
:103D00000E94221FB1E008950C94221F672F782F84
:103D10008827B85F39F0B93FCCF3869577956795DA
:103D2000B395D9F73EF490958095709561957F4F46
:103D30008F4F9F4F0895E89409C097FB3EF49095EC
:103D40008095709561957F4F8F4F9F4F9923A9F074
:103D5000F92F96E9BB279395F69587957795679503
:103D6000B795F111F8CFFAF4BB0F11F460FF1BC047
:103D70006F5F7F4F8F4F9F4F16C0882311F096E9DA
:103D800011C0772321F09EE8872F762F05C0662388
:103D900071F096E8862F70E060E02AF09A95660F41
:103DA000771F881FDAF7880F9695879597F90895FA
:103DB00097F99F6780E870E060E008959FEF80ECDE
:103DC000089500240A941616170618060906089581
:103DD00000240A9412161306140605060895092EE7
:103DE0000394000C11F4882352F0BB0F40F4BF2B56
:103DF00011F460FF04C06F5F7F4F8F4F9F4F089596
:103E000057FD9058440F551F59F05F3F71F047958B
:103E1000880F97FB991F61F09F3F79F08795089570
:103E2000121613061406551FF2CF4695F1DF08C08F
:103E3000161617061806991FF1CF869571056105AC
:103E400008940895E894BB2766277727CB0197F954
:103E500008950E949B1F08F48FEF08950E94411F50
:103E60000C94EF1E0E94E11E38F00E94E81E20F024
:103E7000952311F00C94D81E0C94DE1E11240C9482
:103E8000231F0E94001F70F3959FC1F3950F50E010
:103E9000551F629FF001729FBB27F00DB11D639FFC
:103EA000AA27F00DB11DAA1F649F6627B00DA11DA2
:103EB000661F829F2227B00DA11D621F739FB00D48
:103EC000A11D621F839FA00D611D221F749F3327B8
:103ED000A00D611D231F849F600D211D822F762F51
:103EE0006A2F11249F5750409AF0F1F088234AF02E
:103EF000EE0FFF1FBB1F661F771F881F915050409A
:103F0000A9F79E3F510580F00C94D81E0C94231FF6
:103F10005F3FE4F3983ED4F3869577956795B79520
:103F2000F795E7959F5FC1F7FE2B880F911D96953A
:103F3000879597F90895990F0008550FAA0BE0E8A7
:103F4000FEEF16161706E807F907C0F0121613065B
:103F5000E407F50798F0621B730B840B950B39F49B
:103F60000A2661F0232B242B252B21F408950A2601
:103F700009F4A140A6958FEF811D811D0895FB01D5
:103F8000DC0102C001900D9241505040D8F70895D5
:103F9000DC0101C06D9341505040E0F70895F89462
:023FA000FFCF51
:103FA200DC05DC05DC05DC05DC0500000000680141
:103FB2000A020000000002000000020074010C026C
:103FC20000000000040000000400000000001702CE
:103FD2007701A4016402D501B301C701737472654C
:103FE200616D2066756C6C00696F206572726F720C
:103FF20000696E76616C696420646174615F7369E3
:104002007A6500696E76616C6964206669656C64C4
:10401200207479706500656E642D6F662D737472FD
:1040220065616D00766172696E74206F7665726685
:104032006C6F7700706172656E7420737472656163
:104042006D20746F6F2073686F72740073697A6584
:1040520020746F6F206C6172676500696E76616CA7
:10406200696420776972655F74797065006D697340
:1040720073696E672072657175697265642066691D
:10408200656C640063616C6C6261636B2065727263
:104092006F72006172726179206D61782073697A42
:1040A2006520657863656564656400286E6F6E657A
:1040B2002900696E76616C696420657874656E7337
:1040C200696F6E0062797465732073697A65206521
:1040D20078636565646564007A65726F2D6C656EE0
:1040E20067746820737472696E6700756E746572A6
:1040F2006D696E6174656420737472696E670069BC
:104102006E76616C6964206669656C6420646573AF
:1041120063726970746F72007375626D7367207376
:10412200697A65206368616E6765640077726F6E95
:10413200672077697265207479706500696E7465AD
:1041420067657220746F6F206C61726765006279B7
:10415200746573206F766572666C6F77006E6F2080
:104162006D616C6C6F6320737570706F7274007325
:104172007472696E67206F766572666C6F7700691C
:104182006E636F7272656374206669786564206C11
:10419200656E6774682062797465732073697A65E5
:1041A200006172726179206F766572666C6F77005A
:1041B2006661696C656420746F2073657420646540
:1041C2006661756C74730063616C6C6261636B2011
:1041D2006661696C6564007A65726F20746167005C
:1041E20077726F6E672073697A6520666F722066D8
:1041F2006978656420636F756E74206669656C64A6
:10420200004661696C656420746F206465636F6445
:104212006520636F6D6D616E643A20000D0A0000C7
:00000001FF
